:100000000C94E4000C9401010C9401010C94010186
:100010000C9401010C9401010C9401010C94010158
:100020000C9401010C9401010C9401010C946601E3
:100030000C9401010C9401010C9401010C94010138
:100040000C9401010C9401010C94C00C0C9401015E
:100050000C9401010C9401010C9401010C94010118
:100060000C9401010C940101DD01E201E60188021A
:100070008802880288028802880288028802880230
:100080008802880288028802880288028802880220
:100090008802880288028802880288028802880210
:1000A00088028802030207020B022202260269026A
:1000B00088028802880288022A022E0236024B0237
:1000C0004F026302690288028802880281020040AE
:1000D0007A10F35A00A0724E18090010A5D4E80057
:1000E00000E87648170000E40B54020000CA9A3B6F
:1000F000000000E1F50500008096980000004042F5
:100100000F000000A0860100000010270000000082
:10011000E803000000006400000000000A00000086
:1001200000000100000000002C76D888DC674F0832
:1001300023DFC1DFAE59E1B1B796E5E3E453C63A38
:10014000E651997696E8E6C28426EB898C9B62EDAF
:10015000407C6FFCEFBC9C9F40F2BAA56FA5F49069
:10016000055A2AF75C936B6CF9676DC11BFCE0E4E0
:100170000D47FEF520E6B500D0ED902E0300943536
:1001800077050080841E080000204E0A000000C889
:100190000C333333330F986E12831141EF8D2114DA
:1001A000893BE65516CFFEE6DB18D1844B381BF7AA
:1001B0007C1D901DA4BBE424203284725E22810049
:1001C000C9F124ECA1E53D2711241FBECFEFD8E0F3
:1001D000DEBFCDBF11E0A0E0B1E0EAEAFFE302C07C
:1001E00005900D92A239B107D9F716E0A2E9B1E066
:1001F00001C01D92A13DB107E1F70E94D4130C94F8
:10020000D31F0C945C012F923F924F925F926F929A
:100210007F928F929F92AF92BF92CF92DF92EF9296
:10022000FF920F931F93CF93DF930DB71EB7C82F85
:10023000D92F08831983C62FD72F088119810DBFA5
:100240001EBFDF91CF911F910F91FF90EF90DF9034
:10025000CF90BF90AF909F908F907F906F905F9066
:100260004F903F902F900895C82FD92F0881198162
:100270000DBF1EBFDF91CF911F910F91FF90EF90A7
:10028000DF90CF90BF90AF909F908F907F906F90B6
:100290005F904F903F902F9018958AEF90E0909349
:1002A00089008093880082E080936F00E1E8F0E0AD
:1002B00080818B60808308951F920F920FB60F92FA
:1002C00011240F900FBE0F901F9018951F920F9240
:1002D0000FB60F9211242F933F934F935F936F9319
:1002E0007F938F939F93AF93BF93EF93FF930E945E
:1002F00009040E94DF0B81E00E944E05FF91EF91FF
:10030000BF91AF919F918F917F916F915F914F912D
:100310003F912F910F900FBE0F901F901895DC0109
:10032000FB018BEA91E080839293129212921292D7
:10033000129212921292129212921292129212929D
:100340001292129212921292129212921292319769
:10035000ED93FC930895CF93DF930E941304EC0177
:100360007894009749F0EB81FC81309729F06D81FA
:100370007E818F819885099581E0898B80E00E943C
:10038000FA04DF91CF910895982F809195018823E9
:1003900021F0109298011092950180919801E82F18
:1003A000F0E0E333F10508F0B3C0EC5CFF4FEE0F73
:1003B000FF1F0590F491E02D0994963509F0A8C02F
:1003C00081E084C09335E1F482E080C09F3419F469
:1003D0001092000505C0993429F481E0809300054E
:1003E0008EE174C09D3429F483E08093000588E297
:1003F0006DC0913629F482E08093000582E366C0E7
:100400001092980108959093E0048FE15FC090935B
:10041000970180E226C080919601E82FF0E0E0523B
:10042000FB4F91838F5F809396019091970189177D
:1004300009F06EC081E280939801109296011092AB
:10044000970108959093FF0482E240C09093970132
:1004500083E23CC09093E00489E238C09093970116
:100460008AE28093980110929601089580919601F6
:10047000E82FF0E0E052FB4F91838F5F809396016D
:1004800090919701891709F043C01092960110923C
:1004900097018BE21BC0909397018CE217C080916B
:1004A0009601E82FF0E0E052FB4F908B8F5F809336
:1004B000960190919701891759F510929601109223
:1004C00097018DE203C0909397018EE2809398018B
:1004D000089580919601E82FF0E0E052FB4F91A340
:1004E0008F5F8093960190919701891789F41092FC
:1004F0009601109297011092980181E080939401E7
:1005000008959093E0041092980181E08093940103
:1005100008958091A2068F3F29F490E08091A30670
:100520008F3F09F091E0892F08958091A2068F3FB7
:1005300011F480E008958091A3068F3F11F08FEFB2
:10054000089581E00895DC010D900020E9F71197EE
:10055000A81BB90B50E0A417B50711F090E00AC032
:10056000AD010E94FF199C0190E0232B09F091E05E
:1005700081E09827892F08950F931F93CF93DF93DE
:100580008AE090E060E00E949F1C81E090E06FEFC5
:100590000E949F1C82E090E06FEF0E949F1C80E50C
:1005A00090E00CC0CE0160E00E949F1C2196C01715
:1005B000D107C1F7C835D10531F0CE01EC018C016E
:1005C0000C5F1F4FEFCFDF91CF911F910F910895D7
:1005D0002F923F924F925F926F927F928F929F9253
:1005E000AF92BF92CF92DF92EF92FF920F931F9341
:1005F000DF93CF9300D000D000D0CDB7DEB7F9990C
:10060000FECF8AE090E00E94911C182F843158F4AC
:1006100085E796E06BE070E0412F50E00E94811C7E
:10062000112349F406C08AE090E060E00E949F1C1C
:1006300010E08FEF04C081E090E00E94911C809355
:10064000A206A4E8B6E0E4E6F1E08FE001900D92A6
:100650008150E1F788E290E00E94911C8093A4060B
:10066000112329F082E090E00E94911C01C08FEFDD
:100670008093A306A3E9B6E0E3E7F1E08FE0019001
:100680000D928150E1F789E290E00E94911C8093E5
:10069000A5068824992476E4672E712C82E390E0E5
:1006A0006AE5A62EB12C35C0C7010E94991CF6013F
:1006B000819391936F0189819A810E94991CEB81AA
:1006C000FC8191838083C8010E94911CED81FE8191
:1006D0008087C8010A960E94911CED81FE8181935A
:1006E000FE83ED8322E030E0E20EF31E0F5F1F4F2A
:1006F000C214D304C9F60894811C911C84E090E0D4
:10070000680E791EA20EB31E92E08916910449F17B
:10071000C201A982BA82640153E0CC0CDD1C5A9557
:10072000E1F7E7EAF6E0CE0EDF1E9401220F331F59
:10073000220F331F2554394F3E832D837C018301C3
:10074000C501835A994F9C838B8398E0492E512C85
:100750004E0C5F1C85E7282E86E0382E240C351CB5
:10076000A3CF26960FB6F894DEBF0FBECDBFCF91B4
:10077000DF911F910F91FF90EF90DF90CF90BF908E
:10078000AF909F908F907F906F905F904F903F9031
:100790002F900895EF92FF920F931F93CF93DF93C3
:1007A0007B018A0128E0DA011D922A95E9F7EA0126
:1007B00028962AE0FE0111922A95E9F70E94E11994
:1007C000BC01C8010E94F81980E090E0B7010E94C6
:1007D000E119BC01009719F0CE010E94F819DF91D0
:1007E000CF911F910F91FF90EF9008951092C50047
:1007F00087E68093C400E1ECF0E080818869808323
:100800000895982F8091C00085FFFCCF9093C6007B
:10081000089580919E0190919F01019690939F0170
:1008200080939E01089580919E0190919F01892B54
:1008300019F020E030E004C020919C0130919D012E
:10084000C9010895FFCF0F931F93CF93DF938C01BE
:10085000DB010097A1F16115710589F1EC01488177
:100860005981EA01FA01309731F0928112968C9108
:1008700012978917F0F4E417F50761F4E801B983DA
:10088000A8831A961C921E9219971C96FC93EE93BD
:100890001B970AC01A96DC93CE9319971C96FC936B
:1008A000EE931B97BC87AB87309759F0B287A1872F
:1008B00008C0EF01838594859C01F901D4CF89ECB0
:1008C00001C080E0DF91CF911F910F910895CF93E8
:1008D000DF93EC01009719F4E0E0F0E012C0E8814A
:1008E000F981309771F0A385B485B983A8831097F7
:1008F00021F01A961C921E92199712861186148660
:100900001386CF01DF91CF910895CF93DF93AC0190
:10091000DB010097A9F1EC0188819981009781F1B1
:10092000EC01FC01EA17FB0719F51B96ED91FC9110
:100930001C97A817B90741F4EA01F983E8833097B7
:1009400069F0128611860AC0FC87EB871B96ED9131
:10095000FC911C97309711F0D287C1871C961C928E
:100960001E921B971A961C921E921997BD010AC0DF
:1009700023853485EF012115310511F0F901D2CF1E
:1009800060E070E0CB01DF91CF910895CF93DF93CA
:10099000EC010097C1F0A881B9811097B1F01296CF
:1009A0008C911297681778F01B96ED91FC911C972B
:1009B000F983E883309749F0128611861C961C92C1
:1009C0001E921B9702C0A0E0B0E0CD01DF91CF9155
:1009D000089581E080939B0189E991E06FEF0E9487
:1009E000C604009731F090939D0180939C010E9472
:1009F00034010895FF920F931F93CF93DF93982FA5
:100A000080919B01882309F443C0FFB6F8940091BC
:100A10009C0110919D01F8018585813019F0818933
:100A2000813081F489E991E00E946704FC01158618
:100A30000817190761F190939D0180939C01C801EB
:100A4000BF0123C0F8016281913049F06623F9F0BB
:100A500070E061507040FFEF6F3F7F07C1F089E9A0
:100A600091E00E94C604EC01009789F089E991E0C9
:100A7000B8010E9423041D860C171D0741F0D09376
:100A80009D01C0939C01C801BE010E940301FFBEED
:100A9000DF91CF911F910F91FF90089520919E01BA
:100AA00030919F012150304030939F0120939E014F
:100AB0000E94FA0408958F929F92AF92BF92CF92B4
:100AC000DF92EF92FF920F931F93DF93CF93CDB7F7
:100AD000DEB74C01009709F444C04115510509F4F3
:100AE00040C0E114F104E9F1A114B104C104D1043E
:100AF000C1F1FC011586118A628312861186148663
:100B00001386108A178654834383058316832783AD
:100B10003087B501615070406E0D7F1D0E948F01BE
:100B20001FB7F89489E991E0B4010E942304882357
:100B300019F01FBF8CEC18C01FBF80919B01813042
:100B400091F480919E0190919F01892B61F4809195
:100B50009C0190919D01892B31F080E00E94FA0464
:100B600002C089EC01C080E0CF91DF911F910F910D
:100B7000FF90EF90DF90CF90BF90AF909F908F90BD
:100B800008958F92AF92BF92CF92DF92EF92FF9231
:100B90000F931F937C015A016B01822E10929D01CD
:100BA00010929C0110929A011092990110929B014F
:100BB00080EA91E06FEF42E254E000E010E020E0D4
:100BC00030E00E945B051F910F91FF90EF90DF9046
:100BD000CF90BF90AF908F900895FC01009711F4D3
:100BE00089EC08951382128214821182108280E0AF
:100BF0000895FF920F931F93CF93DF93EC0100971B
:100C000011F419EC3EC00E941304FFB6F8942A8137
:100C10003B812817390719F0FFBE1FEC32C08C81C9
:100C200081508C83882359F51B821A82888199818F
:100C3000892B29F1CE010E9467048C0189E991E09A
:100C4000B8010E942304882319F0FFBE1CEC19C0D0
:100C5000F80116861B830A8387859089009731F0F7
:100C60000E94A00B882311F01DEC04C0F801108A2B
:100C7000178610E0FFBE80E00E94FA0402C0FFBEAB
:100C800010E0812FDF91CF911F910F91FF90089578
:100C9000DF92EF92FF920F931F93CF93DF93009712
:100CA00011F419EC32C07C0100E08AECD82E1FB799
:100CB000F894C7010E946704EC010097D9F0DE8622
:100CC00089E991E0BE010E942304882319F01FBF27
:100CD0001CEC12C08F859889009749F00E94A00BE8
:100CE000882319F01FBF1DEC07C0188A1F861FBF7D
:100CF00001E0DDCF1FBF10E0013039F40E94130482
:100D0000892B19F080E00E94FA04812FDF91CF91A6
:100D10001F910F91FF90EF90DF9008959F92AF92F7
:100D2000BF92CF92DF92EF92FF920F931F93DF93C8
:100D3000CF93CDB7DEB72E970FB6F894DEBF0FBEB8
:100D4000CDBF7C015A016B01009711F499EC71C081
:100D50000E9413048C019FB6F894009719F49FBE6B
:100D600098EC67C0F70182819381009709F44FC026
:100D70008017910709F44BC0D7FC46C0C701B801E2
:100D80000E942304882319F09FBE9CEC52C081E08E
:100D9000F8018587A114B104C104D10411F11A83AB
:100DA0000983FC82EB828CE297E09E838D83CE01E7
:100DB000019698878F83A986BA86CB86DC86CE017A
:100DC0000596908B87870E947B0B882369F0C7016B
:100DD000B8010E948504F8011586108A17869DECDB
:100DE00004C0F801108A178690E09FBE992309F588
:100DF00080E00E94FA04F80196859923D1F4F70166
:100E000084818F5F848315C09FBE93E012C0F70179
:100E100084818F3F11F49BEC0BC08F5FF7018483BB
:100E200082819381892B19F4F7011383028390E067
:100E30009FBE892F2E960FB6F894DEBF0FBECDBF92
:100E4000CF91DF911F910F91FF90EF90DF90CF90A6
:100E5000BF90AF909F9008951F93CF93DF93EC01C5
:100E60000097B1F01FB7F894E881F98182E0868796
:100E7000E881F981108A17868A819B81BF010E94CF
:100E800085046881798189E991E00E9423041FBF6C
:100E9000DF91CF911F910895EF92FF920F931F93CF
:100EA000FC01009749F16115710531F121153105FA
:100EB0004105510509F1E114F10401051105E1F0C5
:100EC000758364832683378340875187E286F38660
:100ED0000487158711821082138212821686178664
:100EE000108A118A128A138A148A158A168A178A16
:100EF000108E118E80E001C089EC1F910F91FF9040
:100F0000EF9008951F93CF93DF93EC010097B1F01A
:100F10001FB7F894E881F98182E08687E881F9813A
:100F2000108A17868C819D81BF010E94850468818B
:100F3000798189E991E00E9423041FBFDF91CF915D
:100F40001F910895EF92FF920F931F93CF93DF931A
:100F5000EC01009709F458C06115710509F454C0FB
:100F60002C813D818E859F85280F391F4E815F81A1
:100F7000C9010E94E619EE84FF84088919892E812F
:100F80003F8148855985E20EF31E041F151FEE862A
:100F9000FF86088B198B8E899F89A88DB98D019644
:100FA000A11DB11D8E8B9F8BA88FB98F6A857B8504
:100FB0008C859D850E943A19E616F70608071907E1
:100FC00020F01E861F86188A198ACE0102960E947A
:100FD0006704EC010097B1F089E991E0BE010E943D
:100FE0002304882311F08CEC10C01E868F8598890D
:100FF000009731F00E94A00B882311F08DEC05C002
:10100000188A1F8680E001C089ECDF91CF911F9183
:101010000F91FF90EF9008956F927F928F929F9221
:10102000AF92BF92CF92DF92EF92FF920F931F93F6
:10103000DF93CF93CDB7DEB760970FB6F894DEBFDE
:101040000FBECDBF6C014A015B013901009709F465
:1010500082C02115310509F47EC0EFB6F894FC0179
:1010600026893789408D518D82859385A485B585E4
:10107000281739074A075B0709F05FC0B7FC59C05A
:101080000E9413048C01009709F44FC0C601B801F7
:101090000E942304882309F044C081E0F801858779
:1010A00081149104A104B10429F11A830983DC821B
:1010B000CB82CD82DE8282E897E098878F83CE0153
:1010C00001969A8789878B869C86AD86BE86CE01DF
:1010D0000796908B87870E947B0B882371F0C6014F
:1010E000B8010E948504F8011586108A17864DEC18
:1010F000F42E04C0F801108A1786FF24EFBEFF20EB
:1011000061F580E00E94FA04F801F684FF2029F5D9
:101110001FB7F894C601B3010E94A207F82E1FBFA3
:101120001CC0EFBE3CECF32E18C0EFBE28ECF22E34
:1011300014C0EFBE93E0F92E10C0C601B3010E94A7
:10114000A207F82EEFBE0E941304892B31F080E035
:101150000E94FA0402C089ECF82E8F2D60960FB61B
:10116000F894DEBF0FBECDBFCF91DF911F910F91DD
:10117000FF90EF90DF90CF90BF90AF909F908F90B7
:101180007F906F900895EF92FF920F931F93CF93EC
:10119000DF93EC01009709F458C06115710509F45B
:1011A00054C02C813D818A899B89280F391F4E812B
:1011B0005F81CB01B9010E94E619EA88FB880C899E
:1011C0001D892E813F8148855985E20EF31E041F3B
:1011D000151FEA8AFB8A0C8B1D8B8E899F89A88D2F
:1011E000B98D0197A109B1098E8B9F8BA88FB98FFB
:1011F0006A857B858C859D850E943A19E616F706DF
:101200000807190720F01A8A1B8A1C8A1D8ACE013A
:101210000E946704EC010097B1F089E991E0BE01FA
:101220000E942304882311F08CEC10C01E868F8549
:101230009889009731F00E94A00B882311F08DEC63
:1012400005C0188A1F8680E001C089ECDF91CF912C
:101250001F910F91FF90EF9008955F926F927F9290
:101260008F929F92AF92BF92CF92DF92EF92FF92B6
:101270000F931F93DF93CF93CDB7DEB760970FB671
:10128000F894DEBF0FBECDBF4C016A017B0139016E
:10129000009709F482C02115310509F47EC05FB6BC
:1012A000F894FC0186899789A08DB18D0097A105DE
:1012B000B10509F064C077FD5EC00E9413048C0183
:1012C000009709F454C0A2E0AA2EB12CA80CB91CB6
:1012D000C501B8010E942304882309F044C081E0BD
:1012E000F8018587C114D104E104F10429F11A83BE
:1012F00009839C828B82BE82AD8282E897E09887C8
:101300008F83CE0101969A878987CB86DC86ED860E
:10131000FE86CE010796908B87870E947B0B8823E1
:1013200071F0C501B8010E948504F8011586108A84
:101330001786FDECFF2E04C0F801108A1786FF24E3
:101340005FBEFF2061F580E00E94FA04F801F68498
:10135000FF2029F51FB7F894C401B3010E94C30808
:10136000F82E1FBF1CC05FBEECECFE2E18C05FBE87
:1013700078ECF72E14C05FBE63E0F62E10C0C401F7
:10138000B9010E94C308F82E5FBE0E941304892B86
:1013900031F080E00E94FA0402C059ECF52E8F2D46
:1013A00060960FB6F894DEBF0FBECDBFCF91DF9130
:1013B0001F910F91FF90EF90DF90CF90BF90AF9073
:1013C0009F908F907F906F905F900895BF92CF9283
:1013D000DF92EF92FF920F931F93CF93DF930097CB
:1013E00011F419EC3DC012E0E12EF12CE80EF91ECB
:1013F0006C0100E0BAECBB2E1FB7F894C7010E9445
:101400006704EC01009731F4C6010E946704EC0107
:101410000097D9F0BE8689E991E0BE010E942304BD
:10142000882319F01FBF1CEC12C08F859889009784
:1014300049F00E94A00B882319F01FBF1DEC07C0C4
:10144000188A1F861FBF01E0D7CF1FBF10E00130F1
:1014500039F40E941304892B19F080E00E94FA04E9
:10146000812FDF91CF911F910F91FF90EF90DF902F
:10147000CF90BF900895FC01009711F489EC089576
:1014800062831182108280E00895FC01009711F4BC
:1014900089EC0895628380E008950F931F93CF93A2
:1014A000DF93FC01009711F419EC34C00FB7F894E6
:1014B00080819181892B29F1CF010E946704EC0181
:1014C00089E991E0BE010E942304882319F00FBF2F
:1014D0001CEC20C01E868F859889009731F00E94F1
:1014E000A00B882311F01DEC03C0188A1F8610E0A2
:1014F0000FBF0E941304892B69F080E00E94FA0458
:1015000009C082818F3F11F41BEC03C08F5F82837F
:1015100010E00FBF812FDF91CF911F910F910895A0
:10152000DF92EF92FF920F931F93CF93DF93009779
:1015300011F419EC32C07C0100E08AECD82E1FB700
:10154000F894C7010E946704EC010097D9F0DE8689
:1015500089E991E0BE010E942304882319F01FBF8E
:101560001CEC12C08F859889009749F00E94A00B4F
:10157000882319F01FBF1DEC07C0188A1F861FBFE4
:1015800001E0DDCF1FBF10E0013039F40E941304E9
:10159000892B19F080E00E94FA04812FDF91CF910E
:1015A0001F910F91FF90EF90DF9008959F92AF925F
:1015B000BF92CF92DF92EF92FF920F931F93DF9330
:1015C000CF93CDB7DEB72E970FB6F894DEBF0FBE20
:1015D000CDBF7C015A016B01009711F489EC59C011
:1015E0009FB6F894FC018281882309F04DC077FDF5
:1015F00048C00E9413048C01009709F43FC0C70142
:10160000B8010E942304882319F09FBE8CEC41C0CE
:1016100081E0F8018587A114B104C104D10411F15E
:101620001A830983FC82EB828BE59BE09E838D838A
:10163000CE01019698878F83A986BA86CB86DC86F1
:10164000CE010596908B87870E947B0B882371F0D3
:10165000C701B8010E948504F8011586108A178613
:101660008DEC04C0F801108A178680E09FBE8823A5
:1016700081F40E94FA04F80186850BC09FBE88ECB5
:1016800008C09FBE83E005C08150F70182839FBEE2
:1016900080E02E960FB6F894DEBF0FBECDBFCF917F
:1016A000DF911F910F91FF90EF90DF90CF90BF904F
:1016B000AF909F9008951F93CF93DF93EC01009715
:1016C000B1F01FB7F894E881F98182E08687E8815C
:1016D000F981108A17868A819B81BF010E94850447
:1016E0006881798189E991E00E9423041FBFDF911D
:1016F000CF911F910895FC01009701F180819181A4
:10170000892BE1F084819581A681B7810097A1059D
:10171000B105A1F02FB7F8948091B6019091B7016F
:10172000009719F41186108602C091878087F09384
:10173000B701E093B6012FBF80E0089589EC0895CA
:101740001F93BC01009711F489EC25C01FB7F894D2
:101750004091B6015091B701DA01FA0118C0E617BD
:10176000F70781F480859185E417F50729F49093B4
:10177000B7018093B60104C019969C938E93189775
:1017800080E008C0DF01808591859C01F9013097D8
:1017900031F78EEC1FBF1F9108956091B2017091D7
:1017A000B3018091B4019091B50108956093B201A5
:1017B0007093B3018093B4019093B5010895EF92B3
:1017C000FF920F931F93CF93DF9380919B01882308
:1017D00009F468C08091B2019091B301A091B40165
:1017E000B091B5010196A11DB11D8093B2019093F6
:1017F000B301A093B401B093B501E091B601F091AB
:10180000B7018F01BF01C0E0D0E040E050E032C03E
:10181000F084E18484819581A681B7810197A10933
:10182000B10984839583A683B7830097A105B10589
:1018300019F08F01FA0119C020853185E617F707E5
:1018400019F4C901BC0106C0D80118962C93189749
:1018500019963C93209711F4EF0105C0DA0119960F
:10186000FC93EE93189711861086AF018F2D9E2D55
:101870009C01F901309761F67093B7016093B6014E
:10188000209771F40FC018850985E881F981309798
:1018900019F08A819B810995812F902F9C01E90184
:1018A000209789F7DF91CF911F910F91FF90EF90D3
:1018B0000895DF92EF92FF920F931F93DF93CF93E0
:1018C000CDB7DEB72C970FB6F894DEBF0FBECDBFF5
:1018D0007B018C010E941304FC01E114F104010559
:1018E000110511F489EC26C0009711F488EC22C090
:1018F000DFB6F89481E08587FA83E98388EA9CE083
:101900009C838B83CE0101969E838D83EF82F88624
:1019100009871A87CE010396908B87870E947B0BDD
:10192000882319F0DFBE8DEC05C0DFBE80E00E9489
:10193000FA0480E02C960FB6F894DEBF0FBECDBF40
:10194000CF91DF911F910F91FF90EF90DF9008955D
:101950001F93FC01009749F01FB7F89460817181D3
:1019600089E991E00E9423041FBF1F910895529AB4
:101970005A98549A5C98209A289A53985B9A08959A
:101980001F920F920FB60F9211242F933F934F93F4
:101990005F936F937F938F939F93AF93BF93EF93D7
:1019A000FF930E9409049091C600E091650625E628
:1019B00036E0D9018E919D01F0E0E80FF11DA5E61A
:1019C000B5E0EA0FFB1F908340916506F901808125
:1019D00090E0840F911D0196A80FB91F1C92808181
:1019E0008F5F80838FEF0E944E05FF91EF91BF9133
:1019F000AF919F918F917F916F915F914F913F91A7
:101A00002F910F900FBE0F901F9018951F93CF939B
:101A1000DF93182F5A9A63E070E080E090E00E9414
:101A2000590C8FE0189FE0011124CC57D94FDE01EB
:101A30000D900020E9F71197AC1BBD0B8DB79EB739
:101A400008970FB6F8949EBF0FBE8DBF2DB73EB757
:101A50002F5F3F4F80E091E0EDB7FEB79283818327
:101A60008091E004F90182831382B583A483D78334
:101A7000C6830E94851A8DB79EB708960FB6F89454
:101A80009EBF0FBE8DBF63E070E080E090E00E94DB
:101A9000590C5A98DF91CF911F9108955A9A63E09B
:101AA00070E080E090E00E94590C8DB79EB70897D7
:101AB0000FB6F8949EBF0FBE8DBFEDB7FEB731963F
:101AC00080E091E0ADB7BEB712969C938E931197CC
:101AD0008091E0048283138283E090E09583848385
:101AE0008AE091E0978386830E94851A8DB79EB71E
:101AF00008960FB6F8949EBF0FBE8DBF63E070E0EE
:101B000080E090E00E94590C5A980895CF93DF939B
:101B1000882321F0813009F059C020C05A9A63E02F
:101B200070E080E090E00E94590C26ED34E0D9018D
:101B30000D900020E9F71197A21BB30B8DB79EB74C
:101B400008970FB6F8949EBF0FBE8DBFEDB7FEB7D6
:101B5000319680E091E0CDB7DEB71DC05A9A63E0C0
:101B600070E080E090E00E94590C2CEC34E0D90148
:101B70000D900020E9F71197A21BB30BCDB7DEB78C
:101B800028970FB6F894DEBF0FBECDBFEDB7FEB7F6
:101B9000319680E091E09A8389838091E00482838A
:101BA0001382B583A483378326830E94851A8DB759
:101BB0009EB708960FB6F8949EBF0FBE8DBF63E028
:101BC00070E080E090E00E94590C5A98DF91CF912C
:101BD0000895EF92FF920F931F93DF93CF93CDB7AA
:101BE000DEB72A970FB6F894DEBF0FBECDBFE82F41
:101BF000F0E070E0EE0FFF1FEE0FFF1F8F010B589C
:101C0000194F060F171F0A5B1F4FD8018C910654FE
:101C10001040813009F060C0E60FF71FEE0FFF1F84
:101C2000E955F94F6081718180E090E07E01089470
:101C3000E11CF11CA7012AE030E00E94341A025B8B
:101C40001F4FF8018081813039F4F70101900020A5
:101C5000E9F7319785E708C0823039F4F701019040
:101C60000020E9F7319784E680835A9A63E070E0B8
:101C700080E090E00E94590C9E012F5F3F4FD901F8
:101C80000D900020E9F71197A21BB30B8DB79EB7FB
:101C900008970FB6F8949EBF0FBE8DBF4DB75EB7C5
:101CA0004F5F5F4F80E091E0EDB7FEB79283818395
:101CB0008091E004FA0182831382B583A483378381
:101CC00026830E94851A8DB79EB708960FB6F894A2
:101CD0009EBF0FBE8DBF2EC05A9A63E070E080E0B9
:101CE00090E00E94590CADB7BEB718970FB6F894A4
:101CF000BEBF0FBEADBFEDB7FEB7319680E091E03D
:101D000012969C938E9311978091E00482831382A4
:101D100084E090E0958384838EE091E097838683CE
:101D20000E94851AEDB7FEB738960FB6F894FEBF3D
:101D30000FBEEDBF63E070E080E090E00E94590CC0
:101D40005A982A960FB6F894DEBF0FBECDBFCF913A
:101D5000DF911F910F91FF90EF900895EF92FF9206
:101D60000F931F93E62E082F10E0FF24C80144961E
:101D7000880F991F880F991F8E0D9F1D60E00E948C
:101D80009F1C000F111F000F111FC701800F911F13
:101D90008A5B9F4F60E00E949F1C0B58194F0E0DED
:101DA0001F1D0A5B1F4FD8011C92085F1F4FF801CF
:101DB00010825A9A63E070E080E090E00E94590C33
:101DC0008DB79EB708970FB6F8949EBF0FBE8DBF14
:101DD000EDB7FEB7319680E091E0ADB7BEB7129691
:101DE0009C938E9311978091E0048283138282E00A
:101DF00090E09583848383E191E0978386830E94BA
:101E0000851AEDB7FEB738960FB6F894FEBF0FBE31
:101E1000EDBF63E070E080E090E00E94590C5A98BA
:101E20001F910F91FF90EF9008950F931F93082F2C
:101E300010E0C80101966FEF0E949F1C0B58194FCC
:101E40008FEFD8019D968C930E948902892B11F403
:101E50000E94BC025A9A63E070E080E090E00E9429
:101E6000590CEDB7FEB738970FB6F894FEBF0FBE0A
:101E7000EDBF319680E091E0ADB7BEB712969C936E
:101E80008E9311978091E0048283138282E090E028
:101E90009583848383E191E0978386830E94851AEA
:101EA000EDB7FEB738960FB6F894FEBF0FBEEDBF84
:101EB00063E070E080E090E00E94590C5A981F9116
:101EC0000F9108954F925F926F927F928F929F929F
:101ED000AF92BF92CF92DF92EF92FF920F931F9338
:101EE000CF93DF93E82E862EEA01FA0101900020BD
:101EF000E9F73197E41BF0E03197E40FF51F80819B
:101F0000853709F074C01082CA010E94BA192B01EA
:101F10003C015A9A63E070E080E090E00E94590C26
:101F2000DE010D900020E9F71197AC1BBD0B8DB7BA
:101F30009EB708970FB6F8949EBF0FBE8DBF2DB702
:101F40003EB72F5F3F4F80E091E0EDB7FEB7928341
:101F500081838091E004F90182831382B583A48395
:101F6000D783C6830E94851A8DB79EB708960FB691
:101F7000F8949EBF0FBE8DBF63E070E080E090E0FC
:101F80000E94590C5A98FF2499248701000F111FB1
:101F9000000F111F6801C80CD91CA9E1B0E0CA0EDE
:101FA000DB1E5601AA0CBB1CC501B2010E94AD1C70
:101FB000E4E1F0E0EE0EFF1EEE0CFF1CEE0CFF1C49
:101FC000C701880D991D61E00E949F1CC6018D9676
:101FD00061E00E949F1C0B58194F080D191D0A5BE8
:101FE0001F4F81E0D8018C93085F1F4F75C000E040
:101FF00011E0843609F07AC01082CA010E94BA1931
:102000002B013C015A9A63E070E080E090E00E946E
:10201000590CDE010D900020E9F71197AC1BBD0BA8
:10202000EDB7FEB738970FB6F894FEBF0FBEEDBF01
:102030002DB73EB72F5F3F4F128301838091E0049D
:10204000F90182831382B583A483D783C6830E9458
:10205000851A8DB79EB708960FB6F8949EBF0FBE2F
:102060008DBF63E070E080E090E00E94590C5A98C8
:10207000FF2499248701000F111F000F111F680111
:10208000C80CD91CA9E1B0E0CA0EDB1E5601AA0C8F
:10209000BB1CC501B2010E94AD1CE4E1F0E0EE0EF4
:1020A000FF1EEE0CFF1CEE0CFF1CC701880D991DD6
:1020B00061E00E949F1CC6018D9662E00E949F1CF9
:1020C0000B58194F080D191D0A5B1F4F81E0D801ED
:1020D0008C93085F1F4F82E0F801808385E796E0CC
:1020E000A80EB91ED5014D925C9233C05A9A63E096
:1020F00070E080E090E00E94590CEDB7FEB7389791
:102100000FB6F894FEBF0FBEEDBF3196ADB7BEB7A8
:1021100012961C930E9311978091E0048283138290
:1021200083E090E0958384838AE091E097838683BF
:102130000E94851AEDB7FEB738960FB6F894FEBF29
:102140000FBEEDBF63E070E080E090E00E94590CAC
:102150005A98DF91CF911F910F91FF90EF90DF90F0
:10216000CF90BF90AF909F908F907F906F905F9037
:102170004F900895EF92FF920F931F93DF93CF93A9
:10218000CDB7DEB72A970FB6F894DEBF0FBECDBF2E
:10219000FB019081082F10E020E0E22E21E0F22EDA
:1021A000992309F041C0000F111F0954194FD8019C
:1021B0006D917C9180E090E08E010F5F1F4FA80130
:1021C0002AE030E00E94341A5A9A63E070E080E01E
:1021D00090E00E94590CD8010D900020E9F711976A
:1021E000A01BB10BEDB7FEB738970FB6F894FEBF42
:1021F0000FBEEDBF2DB73EB72F5F3F4FF282E1829A
:102200008091E004F90182831382B583A48317834C
:1022100006830E94851A8DB79EB708960FB6F8946C
:102220009EBF0FBE8DBF40C0CB010E94BA199B015B
:10223000AC01F801EE0FFF1FE954F94F7183608381
:10224000035D1F4FC801880F991FB9010E94AD1C83
:102250005A9A63E070E080E090E00E94590CADB7BC
:10226000BEB718970FB6F894BEBF0FBEADBFEDB79F
:10227000FEB731961296FC92EE9211978091E0048F
:102280008283138282E090E09583848383E191E0EE
:10229000978386830E94851AEDB7FEB738960FB6EE
:1022A000F894FEBF0FBEEDBF63E070E080E090E009
:1022B0000E94590C5A982A960FB6F894DEBF0FBEAA
:1022C000CDBFCF91DF911F910F91FF90EF900895B7
:1022D000DF92EF92FF920F931F93DF93CF93CDB7CF
:1022E000DEB762970FB6F894DEBF0FBECDBFD82E13
:1022F000CB0166E171E08E010F5F1F4FA8010E94C4
:10230000CA03C80168E171E00E94EF19009709F063
:10231000B9C08985882309F4B5C0CE0109960E9409
:102320009C19E82E8091A2068E1521F08091A306BB
:102330008E15C1F55A9A63E070E080E090E00E944B
:10234000590C8DB79EB708970FB6F8949EBF0FBE75
:102350008DBFEDB7FEB7319680E091E0ADB7BEB767
:1023600012969C938E9311978091E004828313823E
:1023700083E090E0958384838BE191E0978386836B
:102380000E94851AEDB7FEB738960FB6F894FEBFD7
:102390000FBEEDBF63E070E080E090E00E94590C5A
:1023A0005A9870C00E948902892B49F501EE14E009
:1023B000F80101900020E9F7E25EF4408AE090E045
:1023C0006E2F0E949F1CFF2409C0CD010B96A052C6
:1023D000BB4F11966C910E949F1CF394F8010190E1
:1023E0000020E9F7E25EF440AF2DB0E0AE17BF0782
:1023F00060F385E796E061EE74E00E94F8190D2D18
:1024000010E0C80101966E2D0E949F1C0B58194FB9
:10241000D8019D96EC925A9A63E070E080E090E0DB
:102420000E94590CEDB7FEB738970FB6F894FEBF6F
:102430000FBEEDBF319680E091E0ADB7BEB712960A
:102440009C938E9311978091E0048283138282E0A3
:1024500090E09583848383E191E0978386830E9453
:10246000851AEDB7FEB738960FB6F894FEBF0FBECB
:10247000EDBF63E070E080E090E00E94590C5A9854
:1024800081E001C080E062960FB6F894DEBF0FBE17
:10249000CDBFCF91DF911F910F91FF90EF90DF9013
:1024A00008952F923F924F925F926F927F928F92F8
:1024B0009F92AF92BF92CF92DF92EF92FF920F93D3
:1024C0001F93CF93DF933C0170E0CB01880F991FDE
:1024D000880F991FABEB8A2EA6E09A2E880E991EC4
:1024E0008C010459194FEB01F3E0CC0FDD1FFA9575
:1024F000E1F7C955D94FE1E0CE2ED12C5B01AA0CF2
:10250000BB1C87EB96E0A80EB91E45E7442E46E0BB
:10251000542E32EA232E36E0332E260E371EF401D7
:102520008081813009F01FC18085813021F08230A7
:1025300009F019C18CC0888199816816790608F460
:102540007AC0F8018081882309F075C00E94CD0B04
:102550002AEF30E040E050E00E945919E62EFF24B7
:1025600062C05A9A63E070E080E090E00E94590CEB
:10257000F20101900020E9F79F01215030402557DA
:1025800036408DB79EB740970FB6F8949EBF0FBEEA
:102590008DBFADB7BEB711968FE191E0EDB7FEB735
:1025A000928381831296EC92129713961C92139742
:1025B00015963C932E93149717965C924E9216970D
:1025C000F101808118968C93189719961C9219978F
:1025D0001B96DC92CE921A9782E090E01D969C9317
:1025E0008E931C97E3E1F1E01F96FC93EE931E9708
:1025F0000E94851A8DB79EB740960FB6F8949EBF7D
:102600000FBE8DBF63E070E080E090E00E94590C47
:102610005A9881E0F8018083F39464EF71E080E0E0
:1026200090E00E94590C809167068E1521F092E08F
:10263000F91609F096CF88819981F50120813181C1
:10264000821B930B6816790608F08DC08AC08881BA
:1026500099818615970508F47AC0F801808188234E
:1026600009F075C00E94CD0B2AEF30E040E050E049
:102670000E945919E62EFF2462C05A9A63E070E066
:1026800080E090E00E94590CF20101900020E9F7EF
:102690009F0121503040255736408DB79EB7409757
:1026A0000FB6F8949EBF0FBE8DBFADB7BEB71196E3
:1026B0008FE191E0EDB7FEB7928381831296EC92A1
:1026C000129713961C92139715963C932E9314977A
:1026D00017965C924E921697F101808118968C9312
:1026E000189719961C9219971B96DC92CE921A97FE
:1026F00082E090E01D969C938E931C97E3E1F1E0BD
:102700001F96FC93EE931E970E94851A8DB79EB775
:1027100040960FB6F8949EBF0FBE8DBF63E070E089
:1027200080E090E00E94590C5A9881E0F801808383
:10273000F39464EF71E080E090E00E94590C809186
:1027400067068E1521F092E0F91609F096CFF50193
:102750008081918128813981820F931F8615970589
:1027600010F4F80110820894811C911C0F5F1F4F18
:1027700022960894C11CD11CF5E0CF16D10409F0B3
:10278000CECEDF91CF911F910F91FF90EF90DF9010
:10279000CF90BF90AF909F908F907F906F905F9001
:1027A0004F903F902F9008957F928F929F92AF927B
:1027B000BF92CF92DF92EF92FF920F931F9387E821
:1027C00094E09EBF8DBFCF9740E850E060E070E09E
:1027D00020E00E94C105882309F042C00E944D01FB
:1027E0008AEB91E060E146E956E100E010E020E08C
:1027F00030E0B0EFEB2EB1E0FB2EAAEFAA2EB12C09
:10280000C12CD12C88248A940E945B05782E8CECF4
:1028100091E06FE04AE754E100E010E020E030E0B2
:10282000FAEEEF2EF2E0FF2E0E945B05982E8EED61
:1028300091E061E141E354E100E010E020E030E0AC
:10284000E4EEEE2EE3E0FE2E74E6A72EB12CC12CB2
:10285000D12C0E945B059728982A11F40E94E90464
:10286000FFCF0F931F9301E064E670E080E090E0FB
:102870000E94590C8091B8019091B9014B9906C002
:1028800001969093B9018093B80112C002974397C3
:1028900058F480917406813021F45C98109274068B
:1028A00003C05C9A009374061092B9011092B801AB
:1028B0008091B8019091B90184369105A8F210E099
:1028C0005C9A6CE271E080E090E00E94590C5C98A8
:1028D0006CE271E080E090E00E94590C1F5F1A30BA
:1028E00079F71092B9011092B8010E94BC020E94BF
:1028F000E802BACF2F923F924F925F926F927F92EF
:102900008F929F92AF92BF92CF92DF92EF92FF92FF
:102910000F931F93DF93CF93CDB7DEB762970FB6B8
:10292000F894DEBF0FBECDBF3324339421EE622E68
:1029300024E0722E9FE0292E80E2482E512C460C76
:10294000571C4E010894811C911C09E0C02ED12C0B
:10295000CC0EDD1E0EC0E0916606F0E0EB59FA4F9A
:10296000808190E00E94C401809166068F5F809311
:1029700066069091640680916606891720F480911E
:102980009401882341F31092650610926406109218
:10299000660680910005823021F48091E0048093E6
:1029A000670680919401882309F4B0C10E948902CE
:1029B000892B09F438C181EE94E065E776E00E9446
:1029C000EF19009709F04CC112EAA12E16E0B12EC2
:1029D00000E010E080910005813009F01AC1F02E6E
:1029E000E12E9091FF04F5018081981709F011C143
:1029F00081E095E061E371E041E050E00E94A302D4
:102A0000892BB1F0F50180818F3F19F0C8010E9438
:102A1000060DF50180818F3F09F0FBC0809174069F
:102A2000813009F0F6C08F2D9E2D0E94060DF1C059
:102A300081E095E063E371E041E050E00E94A30291
:102A4000892B21F0C8010E94860DE3C081E095E04A
:102A500065E371E041E050E00E94A302892B21F080
:102A6000C8010E94150FD5C081E095E067E371E0D1
:102A700044E050E00E94A302892B21F0C80160E0ED
:102A800070E00DC081E095E06CE371E044E050E05F
:102A90000E94A302892B31F0C80161E070E00E941E
:102AA000E90DB7C081E095E061E471E044E050E0F9
:102AB0000E94A302892B21F0C80162E070E0EFCFF1
:102AC00081E095E066E471E044E050E00E94A302FA
:102AD000892B21F0C80163E070E0E1CF81E095E04F
:102AE00066E171E0A4010E94CA03C40167E371E0DA
:102AF00044E050E00E94A302892BB9F0F601019056
:102B00000020E9F73197EC19FD09329728F0802F62
:102B1000912F60E070E05EC08985882309F079C05C
:102B2000802F912F60E070E060C0C4016CE371E021
:102B300044E050E00E94A302892BB9F0F601019015
:102B40000020E9F73197EC19FD09329728F0802F22
:102B5000912F61E070E03EC08985882309F059C05B
:102B6000802F912F61E070E040C0C40161E471E00A
:102B700044E050E00E94A302892BB1F0F6010190DD
:102B80000020E9F73197EC19FD09329728F0802FE2
:102B9000912F62E070E01EC089858823D1F5802FD7
:102BA000912F62E070E021C0C40166E471E044E06E
:102BB00050E00E94A302892BD9F0F6010190002079
:102BC000E9F73197EC19FD09329740F0802F912FEA
:102BD00063E070E0A6010E94620F1BC08985882314
:102BE000C1F4802F912F63E070E00E94AE0E11C0FF
:102BF000C4016BE471E046E050E00E94A302892B1F
:102C000031F0802F912FB6010E94BA1002C00E94AD
:102C10004E0D0F5F1F4F0894A11CB11C023011050F
:102C200009F0D8CE1DC0809100058130C9F481E043
:102C300095E061E371E041E050E00E94A302892B3E
:102C400079F08091FF048F3F59F4809174068130B0
:102C500039F40E9495028F3F19F090E00E94060D12
:102C600080910005833009F045C00E948902892BBC
:102C700001F181EE94E065E776E00E94EF1900979C
:102C8000C9F580EF94E064E876E00E94EF190097C0
:102C900049F480917406813029F480E061E075E0A8
:102CA0000E94681180EF94E063E976E00E94EF19DA
:102CB00017C080EF94E064E876E00E94EF19009777
:102CC00049F480917406813029F480E061E075E078
:102CD0000E94681180EF94E063E976E00E94EF19AA
:102CE000009741F480917406813021F461E075E031
:102CF0000E94681110929401F301822D11928A951D
:102D0000E9F7F20184E611928A95E9F764E670E04A
:102D100080E090E00E94590C80916406882309F0BD
:102D200028CE309295011092940123CE2F923F929B
:102D30004F925F926F927F928F929F92AF92BF92CB
:102D4000CF92DF92EF92FF920F931F93DF93CF9377
:102D500000D000D00F92CDB7DEB70E94F6030E94DC
:102D6000B70C0E94E802789484E891E09093CE0634
:102D70008093CD065A9A63E070E080E090E00E9474
:102D8000590C04E816E08DB79EB708970FB6F89473
:102D90009EBF0FBE8DBFEDB7FEB7319652E5E52E53
:102DA00051E0F52EADB7BEB71296FC92EE92119798
:102DB000138302838091A206848315820F501040F2
:102DC000178306830E94851A8DB79EB708960FB6A3
:102DD000F8949EBF0FBE8DBF63E070E080E090E08E
:102DE0000E94590C5A9864E670E080E090E00E94DE
:102DF000590C5A9A63E070E080E090E00E94590C10
:102E0000ADB7BEB718970FB6F894BEBF0FBEADBF33
:102E1000EDB7FEB731961296FC92EE921197025ED4
:102E20001F4F138302830E5110408091A3068483A9
:102E30001582178306830E94851A8DB79EB7089660
:102E40000FB6F8949EBF0FBE8DBF63E070E080E0C8
:102E500090E00E94590C5A9864E670E080E090E09F
:102E60000E94590CFE01319685E0DF011D928A9582
:102E7000E9F745ED442E3AE0532E1F01289880E4EF
:102E80009CE90197F1F7289A842D8A95F1F7842D12
:102E90008A95F1F72098289883B180E491E0019712
:102EA000F1F7189B4BC080E090E004C0252D2A95D7
:102EB000F1F70196189B05C0B3E0883E9B07B0F37D
:102EC0003DC023E0883E9207C8F530E004C0252DC0
:102ED0002A95F1F70196189909C084369105B8F33F
:102EE00005C0252D2A95F1F7019602C080E090E0FB
:102EF000189B04C084369105A1F710C0A3E0883E5A
:102F00009A07B8F40F9750F4832F86958695869587
:102F1000F101E80FF11D8081880F0AC0832F86958B
:102F200086958695F101E80FF11D8081880F8160FB
:102F300080833F5F80E090E0383269F62981EA8043
:102F40003B81AC809E2D920F930F9A0D8D81981727
:102F500009F065C0992309F462C0722E6624FF242B
:102F6000E628F728932E8824BB24A828B928C50171
:102F700060E070E00E945112C70161E070E00E94C1
:102F8000511200E010E0C801B7010E94AC1820E027
:102F900030E040E251E40E9418187B018C016093FC
:102FA00068067093690680936A0690936B06CC243A
:102FB000DD24C601B5010E94AC1820E030E040E2FB
:102FC00051E40E9418186093C8047093C904809358
:102FD000CA049093CB04C801B7010E94801870E026
:102FE00080E090E00E94AC1843E021E00CEC14E09B
:102FF0000E947B196091C8047091C9048091CA0431
:103000009091CB040E94801870E080E090E00E94D4
:10301000AC1843E021E006ED14E00E947B19209AF1
:10302000289A68E873E180E090E00E94590C26CF6E
:103030000CD0E6C0DED040F0D5D030F021F45F3FB8
:1030400019F0C7C0511110C1CAC0EBD098F3992331
:10305000C9F35523B1F3951B550BBB27AA2762175C
:103060007307840738F09F5F5F4F220F331F441FA1
:10307000AA1FA9F333D00E2E3AF0E0E830D09150D9
:103080005040E695001CCAF729D0FE2F27D0660FC6
:10309000771F881FBB1F261737074807AB07B0E805
:1030A00009F0BB0B802DBF01FF2793585F4F2AF01B
:1030B0009E3F510568F08DC0D7C05F3FECF3983E4E
:1030C000DCF3869577956795B795F7959F5FC9F778
:1030D000880F911D9695879597F90895E1E0660F01
:1030E000771F881FBB1F621773078407BA0720F07A
:1030F000621B730B840BBA0BEE1F88F7E0950895E3
:1031000098D088F09F5790F0B92F9927B751A0F029
:10311000D1F0660F771F881F991F1AF0BA95C9F76B
:1031200012C0B13081F09FD0B1E008959CC0672FEC
:10313000782F8827B85F39F0B93FCCF3869577951B
:103140006795B395D9F73EF4909580957095619504
:103150007F4F8F4F9F4F0895E89409C097FB3EF42F
:1031600090958095709561957F4F8F4F9F4F9923D4
:10317000A9F0F92F96E9BB279395F6958795779552
:103180006795B795F111F8CFFAF4BB0F11F460FF12
:103190001BC06F5F7F4F8F4F9F4F16C0882311F06A
:1031A00096E911C0772321F09EE8872F762F05C07E
:1031B000662371F096E8862F70E060E02AF09A9519
:1031C000660F771F881FDAF7880F9695879597F90E
:1031D000089597F99F6780E870E060E008959FEF99
:1031E00080EC089500240A9416161706180609069E
:1031F000089500240A94121613061406050608956D
:10320000092E0394000C11F4882352F0BB0F40F4F4
:10321000BF2B11F460FF04C06F5F7F4F8F4F9F4F34
:10322000089557FD9058440F551F59F05F3F71F0B6
:103230004795880F97FB991F61F09F3F79F087951D
:103240000895121613061406551FF2CF4695F1DFA6
:1032500008C0161617061806991FF1CF8695710536
:10326000610508940895E894BB2766277727CB016A
:1032700097F90895629FD001739FF001829FE00D3E
:10328000F11D649FE00DF11D929FF00D839FF00DE5
:10329000749FF00D659FF00D9927729FB00DE11D91
:1032A000F91F639FB00DE11DF91FBD01CF0111246E
:1032B0000895A1E21A2EAA1BBB1BFD010DC0AA1F77
:1032C000BB1FEE1FFF1FA217B307E407F50720F08F
:1032D000A21BB30BE40BF50B661F771F881F991F0A
:1032E0001A9469F760957095809590959B01AC0153
:1032F000BD01CF010895EF92FF920F931F93F22F1C
:10330000F02E47FD02C0E4E001C0E4E1242F3327A2
:1033100027FD309537FF03C0309521953F4F4F2D46
:10332000512F0F2FEE2E0E94B21C8F2D912F1F9127
:103330000F91FF90EF900895FC0188279927E8945A
:1033400021912032E9F3293010F02E30C8F32B32CE
:1033500041F02D3239F4689404C00E947D1A820F26
:10336000911D219120532A30C0F31EF49095819530
:103370009F4F08951F93FC0199278827BC01E8946B
:1033800011911032E9F3193010F01E30C8F31B32DE
:1033900051F01D3249F4689406C00E94681A610F0A
:1033A000711D811D911D119110531A30B0F33EF41F
:1033B00090958095709561957F4F8F4F9F4F1F918E
:1033C000089542E951E00E940D1A0895FB01DC01C5
:1033D00002C001900D9241505040D8F70895FB0172
:1033E000DC018D91019080190110D9F3990B08959A
:1033F000FB01DC0101900D920020E1F70895FB0133
:10340000DC014150504030F08D910190801919F449
:103410000020B9F7881B990B0895FA01A191B0819A
:10342000009719F41097E1F0CD01DC01CD010D906A
:10343000002011F4C00113C0FB012191222319F0D7
:103440002015D9F7F3CFFB012191201519F41E9215
:10345000119606C02223C1F70D900020A1F7D001DC
:10346000FA01A193B0830895FA01CF93FF93EF93EC
:10347000223044F1253234F5C22FE894CA3049F4A1
:1034800097FB3EF490958095709561957F4F8F4F97
:103490009F4F2C2F332744275527FF93EF930E94EC
:1034A0005919EF91FF91605D6A330CF0695D61938A
:1034B000B901CA01605070408040904051F716F445
:1034C000CDE2C19310828F919F91CF910C94021FF6
:1034D000592F482F372F262F660F771F881F991FC8
:1034E000660F771F881F991F620F731F841F951F18
:1034F000660F771F881F991F08957AE0979F902D78
:10350000879F802D910D11240895A0E0B0E0EBE895
:10351000FAE10C94AC1FFE01359661917191809196
:10352000CD069091CE06AF010E94A41A2096E2E04B
:103530000C94C81F9C01AB018091CD069091CE06E2
:10354000B9010E94A41A0895ABE0B0E0EAEAFAE1FA
:103550000C949C1F3C012B015A01FC01178216821E
:10356000838181FD03C06FEF7FEFC6C19AE0892E92
:103570001E010894211C311CF3012381F20123FD5B
:10358000859123FF81912F01882309F4B2C18532EF
:1035900039F423FD859123FF81912F01853229F490
:1035A00090E0B3010E94121FE7CF982FFF24EE2472
:1035B0009924FFE1FF15D0F09B3269F09C3228F48A
:1035C000903259F0933291F40EC09D3249F090330D
:1035D00069F441E024C052E0F52A84E0F82A28C0CA
:1035E00098E0F92A25C0E0E1FE2A22C0F7FC29C0B4
:1035F000892F80538A3070F4F6FE05C0989C902C79
:103600001124980E15C0E89CE02C1124E80EF0E27D
:10361000FF2A0EC09E3229F4F6FC6BC140E4F42A66
:1036200007C09C3619F450E8F52A02C0983649F4D0
:10363000F20123FD959123FF91912F01992309F028
:10364000B8CF892F8554833018F08052833038F4F6
:1036500044E050E0A40EB51E5FE359830FC09336DB
:1036600031F0933779F0933509F056C020C0F50159
:103670008081898342E050E0A40EB51E610101E023
:1036800010E012C0F501C080D180F6FC03C06FEFDE
:103690007FEF02C0692D70E042E050E0A40EB51E3D
:1036A000C6010E94F71E8C015FE7F52214C0F501E8
:1036B000C080D180F6FC03C06FEF7FEF02C0692DA0
:1036C00070E042E050E0A40EB51EC6010E94EC1E60
:1036D0008C0150E8F52AF3FE07C01AC080E290E0A2
:1036E000B3010E94121FEA948E2D90E0081719076B
:1036F000A8F30EC0F601F7FC8591F7FE81916F01EA
:1037000090E0B3010E94121FE110EA9401501040B2
:103710000115110579F7EAC0943611F0993669F56B
:10372000F7FE08C0F501208131814281538184E098
:1037300090E00AC0F501808191819C01442737FD0A
:103740004095542F82E090E0A80EB91E9FE6F92222
:1037500057FF09C050954095309521953F4F4F4FE9
:103760005F4FE0E8FE2ACA01B901A1012AE030E07A
:103770000E943E1FD82ED21840C0953729F41F2D25
:103780001F7E2AE030E01DC01F2D197F9F3661F09B
:10379000903720F4983509F0ACC00FC0903739F05D
:1037A000983709F0A6C004C028E030E00AC01061D4
:1037B00014FD146020E130E004C014FD166020E127
:1037C00032E017FF08C0F501608171818281938129
:1037D00044E050E008C0F50180819181BC0180E0A7
:1037E00090E042E050E0A40EB51EA1010E943E1FF1
:1037F000D82ED2188FE7F82EF122F6FE0BC05EEF1E
:10380000F522D91438F4F4FE07C0F2FC05C08FEE9F
:10381000F82202C01D2D01C0192DF4FE0DC0FE01BD
:10382000ED0DF11D8081803319F499EEF92208C065
:103830001F5FF2FE05C003C08F2D867809F01F5F61
:103840000F2DF3FC14C0F0FE0FC01E1510F09D2CC0
:103850000BC09D2C9E0C911A1E2D06C080E290E09C
:10386000B3010E94121F1F5F1E15C0F304C01E1576
:1038700010F4E11A01C0EE2404FF0FC080E390E0D1
:10388000B3010E94121F02FF1DC001FD03C088E7A3
:1038900090E00EC088E590E00BC0802F867891F014
:1038A00001FF02C08BE201C080E2F7FC8DE290E0F4
:1038B000B3010E94121F06C080E390E0B3010E9492
:1038C000121F9A94D914C0F3DA94F101ED0DF11D91
:1038D000808190E0B3010E94121FDD20A9F706C08D
:1038E00080E290E0B3010E94121FEA94EE20C1F73B
:1038F00043CEF30166817781CB012B96E2E10C94F4
:10390000B81FDC01CB01FC01F999FECF06C0F2BD66
:10391000E1BDF89A319600B40D9241505040B8F78D
:103920000895F999FECF92BD81BDF89A992780B587
:103930000895A8E1B0E042E050E00C94831C262FEB
:10394000F999FECF1FBA92BD81BD20BD0FB6F89484
:10395000FA9AF99A0FBE019608950E949F1C272F8C
:103960000C94A01CA9E0B0E0E8EBFCE10C94A01FD3
:103970006A01122FA02EBE2C2BE3201718F42CE383
:10398000922E02C0902E9394AE014F5F5F4F27E0BE
:10399000092D0E94141EBC018981E82EFF24C70155
:1039A00089709070019711F4ADE209C0B1FE02C0B8
:1039B000ABE205C0B0FC02C0A0E001C0A0E2E3FEA3
:1039C0003BC0AA2311F423E001C024E0211710F02A
:1039D00020E002C0121B212FEB2CB4FE02C0322FBC
:1039E0000AC0F601322F80E202C0819331503323A6
:1039F000E1F7C20ED11CAA2319F0F601A1936F01C1
:103A0000F6013196E2FE05C09EE4D6019C9381E466
:103A100004C09EE6D6019C9381E611968C93918317
:103A20003296DF01832F90E202C09D93815088235C
:103A3000E1F7E30FF11D40C0E2FE42C0AA2311F4FA
:103A400023E001C024E0211710F020E002C0121B87
:103A5000212FEB2CB4FE02C0922F0AC0F601922F48
:103A600080E202C0819391509923E1F7C20ED11CEC
:103A7000AA2319F0F601A1936F01F6013196E2FE37
:103A800008C089E4D6018C938EE411968C9386E469
:103A900007C089E6D6018C938EE611968C9386E654
:103AA00081833296DF01892F20E202C02D9381505D
:103AB0008823E1F7E90FF11D10822EEF3FEFAFC031
:103AC000161617061CF041E050E003C0AB014F5F33
:103AD0005F4FAA2019F480E090E003C08A2D90E0A7
:103AE000019620E030E0AA2311F021E030E0240F1D
:103AF000351F280F391F812F90E02817390714F040
:103B000020E002C0121B212F4B2D50E0CA01807112
:103B10009070B4FC0DC0B3FC0BC0F601322F40E234
:103B200002C0419331503323E1F7C20ED11C01C0D2
:103B3000322FAA2319F0F601A1936F01892B11F0FE
:103B4000132F0AC0F601132F80E302C08193115096
:103B50001123E1F7C30ED11C092D060FBA8090E1A5
:103B6000892E912C8E209F20E4FE04C0F1E3BF1625
:103B700009F40150101614F001E003C0093008F0F8
:103B800008E09B0177FF02C020E030E0CB01019606
:103B9000821B930BFE013196E80FF91F8EE2F82E7F
:103BA0003B01601A71088A2D90E044275527481B75
:103BB000590B8FEF2F3F380719F4D601FD926D0195
:103BC000621773072CF06216730614F4808101C02B
:103BD00080E32150304031962417350724F0D60178
:103BE0008D936D01E6CF2617370749F4B5E3BB1572
:103BF00028F0BB1621F48114910409F481E3F60145
:103C00008193D601812F90E202C09C93815011963E
:103C10008823D9F7E10FF11D108220E030E0C901BF
:103C20002996EEE00C94BC1F283008F027E03327DB
:103C3000DA01990F311D87FD9160009661057105CC
:103C400039F432602E5F3D9330E32A95E1F7089511
:103C50009F3F30F080387105610509F03C5F3C5FA3
:103C60003D93913008F08068911DDF93CF931F93AF
:103C70000F93FF92EF92192F987F9695E92F9695C3
:103C80009695E90FFF27E85DFE4F99273327EE242D
:103C9000FF24A701E70105900894079428F4360F44
:103CA000E71EF81E491F511D660F771F881F991FB9
:103CB0000694A1F70590079428F4E70EF81E491F13
:103CC000561FC11D770F881F991F661F0694A1F705
:103CD0000590079428F4F80E491F561FC71FD11DE1
:103CE000880F991F661F771F0694A1F70590079408
:103CF00020F4490F561FC71FD81F990F661F771F43
:103D0000881F0694A9F784911095177041F0D695F5
:103D1000C79557954795F794E7941A95C1F7EEEC38
:103D2000F0E0689415901591359165919591059005
:103D30007FE27395E118F10A430B560BC90BD009CA
:103D4000C0F7E10CF11E431F561FC91FD01D7EF4A2
:103D5000703311F48A95E6CFE894015030F0080FE3
:103D60000AF40027021708F4202F2395022F7A3334
:103D700028F079E37D932A95E9F710C07D932A9581
:103D800089F6069497956795379517951794E118D6
:103D9000F10A430B560BC90BD00998F023957E917D
:103DA00073957A3308F070E37C932013B8F77E9113
:103DB00070617D9330F0839571E37D9370E32A9574
:103DC000E1F71124EF90FF900F911F91CF91DF91B8
:103DD000992787FD90950895FC01059061507040EA
:103DE0000110D8F7809590958E0F9F1F0895FC01C4
:103DF0006150704001900110D8F7809590958E0F1A
:103E00009F1F0895DC01FC01672F71917723E1F773
:103E1000329704C07C916D9370836291AE17BF0797
:103E2000C8F308950F931F93CF93DF938C01EB0199
:103E30008B8181FF1BC082FF0DC02E813F818C8151
:103E40009D812817390764F4E881F9810193F9838A
:103E5000E88306C0E885F985802F0995892B31F420
:103E60008E819F8101969F838E8302C00FEF1FEF8B
:103E7000C801DF91CF911F910F910895FA01AA27F0
:103E8000283051F1203181F1E8946F936E7F6E5F9D
:103E90007F4F8F4F9F4FAF4FB1E03ED0B4E03CD04B
:103EA000670F781F891F9A1FA11D680F791F8A1F2E
:103EB000911DA11D6A0F711D811D911DA11D20D095
:103EC00009F468943F912AE0269F11243019305D4F
:103ED0003193DEF6CF010895462F4770405D419340
:103EE000B3E00FD0C9F7F6CF462F4F70405D4A338D
:103EF00018F0495D31FD4052419302D0A9F7EACF55
:103F0000B4E0A6959795879577956795BA95C9F783
:103F100000976105710508959B01AC010A2E069476
:103F20005795479537952795BA95C9F7620F731F2F
:103F3000841F951FA01D08952F923F924F925F926C
:103F40006F927F928F929F92AF92BF92CF92DF92A9
:103F5000EF92FF920F931F93CF93DF93CDB7DEB70E
:103F6000CA1BDB0B0FB6F894DEBF0FBECDBF0994A2
:103F70002A88398848885F846E847D848C849B84F9
:103F8000AA84B984C884DF80EE80FD800C811B8107
:103F9000AA81B981CE0FD11D0FB6F894DEBF0FBE36
:0A3FA000CDBFED010895F894FFCFA6
:103FAA0056537225632563257300457272006E7538
:103FBA006C6C004F4B003D00495000657272005610
:103FCA005365256325632573256325632563257357
:103FDA00006D007300440054485231005448523274
:103FEA0000544852330054485234004F4646534511
:103FFA0054006D61634465763A25732D25642D2539
:10400A00730D0A006D49323330322D310000000041
:10401A000000006D49323330322D320000000000BA
:10402A00000001010000000200000000010400007D
:02403A00000084
:00000001FF
